:100000000C9434000C943E000C943E000C943E0082
:100010000C943E000C943E000C943E000C943E0068
:100020000C943E000C943E000C943E000C943E0058
:100030000C943E000C943E000C943E000C943E0048
:100040000C943E000C943E000C943E000C943E0038
:100050000C943E000C943E000C943E000C943E0028
:100060000C943E000C943E0011241FBECFEFD8E04C
:10007000DEBFCDBF0E9440000C942B010C94000009
:10008000EF92FF920F931F938FEF8AB91BB82198BD
:10009000299A22982A9A23982B9A44E254EFEE2424
:1000A000E39482E0F82E04E018E0B0E1A0E270E40E
:1000B00060E829E130E01A9B67C0199B21C023C08A
:1000C000CA010197F1F7EBB8CA010197F1F7FBB844
:1000D000CA010197F1F70BB9CA010197F1F71BB9F2
:1000E000CA010197F1F7BBB9CA010197F1F7ABB9A2
:1000F000CA010197F1F77BB9CA010197F1F76BB912
:10010000199BDECFD8CF80E197E2F9013197F1F763
:100110000197D9F7EBB880E197E2F9013197F1F750
:100120000197D9F7FBB880E197E2F9013197F1F730
:100130000197D9F70BB980E197E2F9013197F1F70F
:100140000197D9F71BB980E197E2F9013197F1F7EF
:100150000197D9F7BBB980E197E2F9013197F1F73F
:100160000197D9F7ABB980E197E2F9013197F1F73F
:100170000197D9F77BB980E197E2F9013197F1F75F
:100180000197D9F76BB997CF199B21C023C0CA013A
:100190000197F1F76BB9CA010197F1F77BB9CA0171
:1001A0000197F1F7ABB9CA010197F1F7BBB9CA01E1
:1001B0000197F1F71BB9CA010197F1F70BB9CA0111
:1001C0000197F1F7FBB8CA010197F1F7EBB8199B5A
:1001D000DECF71CF80E197E2F9013197F1F7019716
:1001E000D9F76BB980E197E2F9013197F1F70197FF
:1001F000D9F77BB980E197E2F9013197F1F70197DF
:10020000D9F7ABB980E197E2F9013197F1F701979E
:10021000D9F7BBB980E197E2F9013197F1F701977E
:10022000D9F71BB980E197E2F9013197F1F701970E
:10023000D9F70BB980E197E2F9013197F1F701970E
:10024000D9F7FBB880E197E2F9013197F1F701970F
:0A025000D9F7EBB830CFF894FFCFD8
:00000001FF
